{
  "contractName": "ContratoInmobiliariaV2",
  "abi": [
    {
      "constant": true,
      "inputs": [
        {
          "name": "",
          "type": "uint256"
        }
      ],
      "name": "contratosData",
      "outputs": [
        {
          "name": "fecha_inicio",
          "type": "string"
        },
        {
          "name": "fecha_final",
          "type": "string"
        },
        {
          "name": "tipo_pago",
          "type": "string"
        },
        {
          "name": "tipo",
          "type": "string"
        },
        {
          "name": "entrega_pago",
          "type": "string"
        },
        {
          "name": "valor",
          "type": "uint256"
        },
        {
          "name": "moneda",
          "type": "string"
        },
        {
          "name": "estado",
          "type": "string"
        },
        {
          "name": "inmueble",
          "type": "uint256"
        },
        {
          "name": "propietario",
          "type": "uint256"
        },
        {
          "name": "cliente",
          "type": "uint256"
        }
      ],
      "payable": false,
      "stateMutability": "view",
      "type": "function"
    },
    {
      "constant": false,
      "inputs": [
        {
          "name": "fecha_inicio",
          "type": "string"
        },
        {
          "name": "fecha_final",
          "type": "string"
        },
        {
          "name": "tipo_pago",
          "type": "string"
        },
        {
          "name": "tipo",
          "type": "string"
        },
        {
          "name": "entrega_pago",
          "type": "string"
        },
        {
          "name": "valor",
          "type": "uint256"
        },
        {
          "name": "moneda",
          "type": "string"
        },
        {
          "name": "estado",
          "type": "string"
        },
        {
          "name": "inmueble",
          "type": "uint256"
        },
        {
          "name": "propietario",
          "type": "uint256"
        },
        {
          "name": "cliente",
          "type": "uint256"
        }
      ],
      "name": "setContrato",
      "outputs": [],
      "payable": false,
      "stateMutability": "nonpayable",
      "type": "function"
    },
    {
      "constant": true,
      "inputs": [],
      "name": "getContratos",
      "outputs": [
        {
          "components": [
            {
              "name": "fecha_inicio",
              "type": "string"
            },
            {
              "name": "fecha_final",
              "type": "string"
            },
            {
              "name": "tipo_pago",
              "type": "string"
            },
            {
              "name": "tipo",
              "type": "string"
            },
            {
              "name": "entrega_pago",
              "type": "string"
            },
            {
              "name": "valor",
              "type": "uint256"
            },
            {
              "name": "moneda",
              "type": "string"
            },
            {
              "name": "estado",
              "type": "string"
            },
            {
              "name": "inmueble",
              "type": "uint256"
            },
            {
              "name": "propietario",
              "type": "uint256"
            },
            {
              "name": "cliente",
              "type": "uint256"
            }
          ],
          "name": "",
          "type": "tuple[]"
        }
      ],
      "payable": false,
      "stateMutability": "view",
      "type": "function"
    }
  ],
  "bytecode": "0x608060405234801561001057600080fd5b5061133f806100206000396000f3fe608060405260043610610051576000357c0100000000000000000000000000000000000000000000000000000000900480631e03bf11146100565780639a9a88591461009d578063d0c2f31e146100c8575b600080fd5b34801561006257600080fd5b5061007d60048036036100789190810190610f22565b6100f1565b6040516100949b9a99989796959493929190611139565b60405180910390f35b3480156100a957600080fd5b506100b2610582565b6040516100bf9190611117565b60405180910390f35b3480156100d457600080fd5b506100ef60048036036100ea9190810190610d8a565b610a79565b005b60008181548110151561010057fe5b90600052602060002090600b0201600091509050806000018054600181600116156101000203166002900480601f0160208091040260200160405190810160405280929190818152602001828054600181600116156101000203166002900480156101ac5780601f10610181576101008083540402835291602001916101ac565b820191906000526020600020905b81548152906001019060200180831161018f57829003601f168201915b505050505090806001018054600181600116156101000203166002900480601f01602080910402602001604051908101604052809291908181526020018280546001816001161561010002031660029004801561024a5780601f1061021f5761010080835404028352916020019161024a565b820191906000526020600020905b81548152906001019060200180831161022d57829003601f168201915b505050505090806002018054600181600116156101000203166002900480601f0160208091040260200160405190810160405280929190818152602001828054600181600116156101000203166002900480156102e85780601f106102bd576101008083540402835291602001916102e8565b820191906000526020600020905b8154815290600101906020018083116102cb57829003601f168201915b505050505090806003018054600181600116156101000203166002900480601f0160208091040260200160405190810160405280929190818152602001828054600181600116156101000203166002900480156103865780601f1061035b57610100808354040283529160200191610386565b820191906000526020600020905b81548152906001019060200180831161036957829003601f168201915b505050505090806004018054600181600116156101000203166002900480601f0160208091040260200160405190810160405280929190818152602001828054600181600116156101000203166002900480156104245780601f106103f957610100808354040283529160200191610424565b820191906000526020600020905b81548152906001019060200180831161040757829003601f168201915b505050505090806005015490806006018054600181600116156101000203166002900480601f0160208091040260200160405190810160405280929190818152602001828054600181600116156101000203166002900480156104c85780601f1061049d576101008083540402835291602001916104c8565b820191906000526020600020905b8154815290600101906020018083116104ab57829003601f168201915b505050505090806007018054600181600116156101000203166002900480601f0160208091040260200160405190810160405280929190818152602001828054600181600116156101000203166002900480156105665780601f1061053b57610100808354040283529160200191610566565b820191906000526020600020905b81548152906001019060200180831161054957829003601f168201915b50505050509080600801549080600901549080600a015490508b565b60606000805480602002602001604051908101604052809291908181526020016000905b82821015610a7057838290600052602060002090600b02016101606040519081016040529081600082018054600181600116156101000203166002900480601f0160208091040260200160405190810160405280929190818152602001828054600181600116156101000203166002900480156106645780601f1061063957610100808354040283529160200191610664565b820191906000526020600020905b81548152906001019060200180831161064757829003601f168201915b50505050508152602001600182018054600181600116156101000203166002900480601f0160208091040260200160405190810160405280929190818152602001828054600181600116156101000203166002900480156107065780601f106106db57610100808354040283529160200191610706565b820191906000526020600020905b8154815290600101906020018083116106e957829003601f168201915b50505050508152602001600282018054600181600116156101000203166002900480601f0160208091040260200160405190810160405280929190818152602001828054600181600116156101000203166002900480156107a85780601f1061077d576101008083540402835291602001916107a8565b820191906000526020600020905b81548152906001019060200180831161078b57829003601f168201915b50505050508152602001600382018054600181600116156101000203166002900480601f01602080910402602001604051908101604052809291908181526020018280546001816001161561010002031660029004801561084a5780601f1061081f5761010080835404028352916020019161084a565b820191906000526020600020905b81548152906001019060200180831161082d57829003601f168201915b50505050508152602001600482018054600181600116156101000203166002900480601f0160208091040260200160405190810160405280929190818152602001828054600181600116156101000203166002900480156108ec5780601f106108c1576101008083540402835291602001916108ec565b820191906000526020600020905b8154815290600101906020018083116108cf57829003601f168201915b5050505050815260200160058201548152602001600682018054600181600116156101000203166002900480601f0160208091040260200160405190810160405280929190818152602001828054600181600116156101000203166002900480156109985780601f1061096d57610100808354040283529160200191610998565b820191906000526020600020905b81548152906001019060200180831161097b57829003601f168201915b50505050508152602001600782018054600181600116156101000203166002900480601f016020809104026020016040519081016040528092919081815260200182805460018160011615610100020316600290048015610a3a5780601f10610a0f57610100808354040283529160200191610a3a565b820191906000526020600020905b815481529060010190602001808311610a1d57829003601f168201915b505050505081526020016008820154815260200160098201548152602001600a82015481525050815260200190600101906105a6565b50505050905090565b610a81610c20565b8b81600001819052508a8160200181905250898160400181905250888160600181905250878160800181905250868160a0018181525050858160c00181905250848160e001819052508381610100018181525050828161012001818152505081816101400181815250506000819080600181540180825580915050906001820390600052602060002090600b0201600090919290919091506000820151816000019080519060200190610b35929190610c7b565b506020820151816001019080519060200190610b52929190610c7b565b506040820151816002019080519060200190610b6f929190610c7b565b506060820151816003019080519060200190610b8c929190610c7b565b506080820151816004019080519060200190610ba9929190610c7b565b5060a0820151816005015560c0820151816006019080519060200190610bd0929190610c7b565b5060e0820151816007019080519060200190610bed929190610c7b565b506101008201518160080155610120820151816009015561014082015181600a0155505050505050505050505050505050565b6101606040519081016040528060608152602001606081526020016060815260200160608152602001606081526020016000815260200160608152602001606081526020016000815260200160008152602001600081525090565b828054600181600116156101000203166002900490600052602060002090601f016020900481019282601f10610cbc57805160ff1916838001178555610cea565b82800160010185558215610cea579182015b82811115610ce9578251825591602001919060010190610cce565b5b509050610cf79190610cfb565b5090565b610d1d91905b80821115610d19576000816000905550600101610d01565b5090565b90565b600082601f8301121515610d3357600080fd5b8135610d46610d4182611242565b611215565b91508082526020830160208301858383011115610d6257600080fd5b610d6d8382846112b2565b50505092915050565b6000610d8282356112a8565b905092915050565b60008060008060008060008060008060006101608c8e031215610dac57600080fd5b60008c013567ffffffffffffffff811115610dc657600080fd5b610dd28e828f01610d20565b9b505060208c013567ffffffffffffffff811115610def57600080fd5b610dfb8e828f01610d20565b9a505060408c013567ffffffffffffffff811115610e1857600080fd5b610e248e828f01610d20565b99505060608c013567ffffffffffffffff811115610e4157600080fd5b610e4d8e828f01610d20565b98505060808c013567ffffffffffffffff811115610e6a57600080fd5b610e768e828f01610d20565b97505060a0610e878e828f01610d76565b96505060c08c013567ffffffffffffffff811115610ea457600080fd5b610eb08e828f01610d20565b95505060e08c013567ffffffffffffffff811115610ecd57600080fd5b610ed98e828f01610d20565b945050610100610eeb8e828f01610d76565b935050610120610efd8e828f01610d76565b925050610140610f0f8e828f01610d76565b9150509295989b509295989b9093969950565b600060208284031215610f3457600080fd5b6000610f4284828501610d76565b91505092915050565b6000610f568261127b565b80845260208401935083602082028501610f6f8561126e565b60005b84811015610fa8578383038852610f8a838351610fef565b9250610f9582611291565b9150602088019750600181019050610f72565b508196508694505050505092915050565b6000610fc482611286565b808452610fd88160208601602086016112c1565b610fe1816112f4565b602085010191505092915050565b600061016083016000830151848203600086015261100d8282610fb9565b915050602083015184820360208601526110278282610fb9565b915050604083015184820360408601526110418282610fb9565b9150506060830151848203606086015261105b8282610fb9565b915050608083015184820360808601526110758282610fb9565b91505060a083015161108a60a0860182611108565b5060c083015184820360c08601526110a28282610fb9565b91505060e083015184820360e08601526110bc8282610fb9565b9150506101008301516110d3610100860182611108565b506101208301516110e8610120860182611108565b506101408301516110fd610140860182611108565b508091505092915050565b6111118161129e565b82525050565b600060208201905081810360008301526111318184610f4b565b905092915050565b6000610160820190508181036000830152611154818e610fb9565b90508181036020830152611168818d610fb9565b9050818103604083015261117c818c610fb9565b90508181036060830152611190818b610fb9565b905081810360808301526111a4818a610fb9565b90506111b360a0830189611108565b81810360c08301526111c58188610fb9565b905081810360e08301526111d98187610fb9565b90506111e9610100830186611108565b6111f7610120830185611108565b611205610140830184611108565b9c9b505050505050505050505050565b6000604051905081810181811067ffffffffffffffff8211171561123857600080fd5b8060405250919050565b600067ffffffffffffffff82111561125957600080fd5b601f19601f8301169050602081019050919050565b6000602082019050919050565b600081519050919050565b600081519050919050565b6000602082019050919050565b6000819050919050565b6000819050919050565b82818337600083830152505050565b60005b838110156112df5780820151818401526020810190506112c4565b838111156112ee576000848401525b50505050565b6000601f19601f830116905091905056fea265627a7a72305820c27ac7808456543c35e072292ab67deea1a65445e9dd8c466aeb7f1dc680c04d6c6578706572696d656e74616cf50037",
  "source": "pragma solidity >=0.4.0 <0.7.0;\r\npragma experimental ABIEncoderV2;\r\n\r\ncontract ContratoInmobiliariaV2 {\r\n    struct Contrato {\r\n        string fecha_inicio;\r\n        string fecha_final;\r\n        string tipo_pago;\r\n        string tipo;\r\n        string entrega_pago;\r\n        uint256 valor;\r\n        string moneda;\r\n        string estado;\r\n        uint256 inmueble;\r\n        uint256 propietario;\r\n        uint256 cliente;\r\n    }\r\n    // mapping(uint256 => contrato) contratos;\r\n    Contrato[] public contratosData;\r\n\r\n    function setContrato(\r\n        string memory fecha_inicio,\r\n        string memory fecha_final,\r\n        string memory tipo_pago,\r\n        string memory tipo,\r\n        string memory entrega_pago,\r\n        uint256 valor,\r\n        string memory moneda,\r\n        string memory estado,\r\n        uint256 inmueble,\r\n        uint256 propietario,\r\n        uint256 cliente\r\n    ) public {\r\n        //contratosData.length += 1\r\n        Contrato memory con; //creacion del obj contrato\r\n        con.fecha_inicio = fecha_inicio;\r\n        con.fecha_final = fecha_final;\r\n        con.tipo_pago = tipo_pago;\r\n        con.tipo = tipo;\r\n        con.entrega_pago = entrega_pago;\r\n        con.valor = valor;\r\n        con.moneda = moneda;\r\n        con.estado = estado;\r\n        con.inmueble = inmueble;\r\n        con.propietario = propietario;\r\n        con.cliente = cliente;\r\n        contratosData.push(con);\r\n    }\r\n\r\n    function getContratos() public view returns (Contrato[] memory) {\r\n        return contratosData;\r\n    }\r\n}\r\n",
  "sourcePath": "C:/Users/vladimir alan PC/Desktop/tallerFinal/contrato/contracts/ContratoInmobiliariaV2.sol",
  "compiler": {
    "name": "solc",
    "version": "0.5.1+commit.c8a2cb62.Emscripten.clang"
  },
  "schemaVersion": "3.2.5",
  "updatedAt": "2020-10-13T07:24:00.155Z",
  "networkType": "ethereum",
  "devdoc": {
    "methods": {}
  },
  "userdoc": {
    "methods": {}
  }
}