{
  "contractName": "ContratoInmobiliaria",
  "abi": [
    {
      "constant": true,
      "inputs": [
        {
          "name": "",
          "type": "uint256"
        }
      ],
      "name": "contratosData",
      "outputs": [
        {
          "name": "tipo",
          "type": "string"
        },
        {
          "name": "duracion",
          "type": "string"
        },
        {
          "name": "valor",
          "type": "uint256"
        },
        {
          "name": "moneda",
          "type": "string"
        },
        {
          "name": "fecha_firma",
          "type": "string"
        },
        {
          "name": "fecha_vencimiento",
          "type": "string"
        },
        {
          "name": "cliente",
          "type": "string"
        },
        {
          "name": "inmueble",
          "type": "uint256"
        }
      ],
      "payable": false,
      "stateMutability": "view",
      "type": "function"
    },
    {
      "constant": false,
      "inputs": [
        {
          "name": "tipo",
          "type": "string"
        },
        {
          "name": "duracion",
          "type": "string"
        },
        {
          "name": "valor",
          "type": "uint256"
        },
        {
          "name": "moneda",
          "type": "string"
        },
        {
          "name": "fecha_firma",
          "type": "string"
        },
        {
          "name": "fecha_vencimiento",
          "type": "string"
        },
        {
          "name": "cliente",
          "type": "string"
        },
        {
          "name": "inmueble",
          "type": "uint256"
        }
      ],
      "name": "setContrato",
      "outputs": [],
      "payable": false,
      "stateMutability": "nonpayable",
      "type": "function"
    },
    {
      "constant": true,
      "inputs": [],
      "name": "getContratos",
      "outputs": [
        {
          "components": [
            {
              "name": "tipo",
              "type": "string"
            },
            {
              "name": "duracion",
              "type": "string"
            },
            {
              "name": "valor",
              "type": "uint256"
            },
            {
              "name": "moneda",
              "type": "string"
            },
            {
              "name": "fecha_firma",
              "type": "string"
            },
            {
              "name": "fecha_vencimiento",
              "type": "string"
            },
            {
              "name": "cliente",
              "type": "string"
            },
            {
              "name": "inmueble",
              "type": "uint256"
            }
          ],
          "name": "",
          "type": "tuple[]"
        }
      ],
      "payable": false,
      "stateMutability": "view",
      "type": "function"
    }
  ],
  "bytecode": "0x608060405234801561001057600080fd5b506110a0806100206000396000f3fe608060405260043610610051576000357c0100000000000000000000000000000000000000000000000000000000900480631e03bf11146100565780639a9a88591461009a578063b3862363146100c5575b600080fd5b34801561006257600080fd5b5061007d60048036036100789190810190610cfd565b6100ee565b604051610091989796959493929190610ece565b60405180910390f35b3480156100a657600080fd5b506100af6104d5565b6040516100bc9190610eac565b60405180910390f35b3480156100d157600080fd5b506100ec60048036036100e79190810190610bbb565b610916565b005b6000818154811015156100fd57fe5b9060005260206000209060080201600091509050806000018054600181600116156101000203166002900480601f0160208091040260200160405190810160405280929190818152602001828054600181600116156101000203166002900480156101a95780601f1061017e576101008083540402835291602001916101a9565b820191906000526020600020905b81548152906001019060200180831161018c57829003601f168201915b505050505090806001018054600181600116156101000203166002900480601f0160208091040260200160405190810160405280929190818152602001828054600181600116156101000203166002900480156102475780601f1061021c57610100808354040283529160200191610247565b820191906000526020600020905b81548152906001019060200180831161022a57829003601f168201915b505050505090806002015490806003018054600181600116156101000203166002900480601f0160208091040260200160405190810160405280929190818152602001828054600181600116156101000203166002900480156102eb5780601f106102c0576101008083540402835291602001916102eb565b820191906000526020600020905b8154815290600101906020018083116102ce57829003601f168201915b505050505090806004018054600181600116156101000203166002900480601f0160208091040260200160405190810160405280929190818152602001828054600181600116156101000203166002900480156103895780601f1061035e57610100808354040283529160200191610389565b820191906000526020600020905b81548152906001019060200180831161036c57829003601f168201915b505050505090806005018054600181600116156101000203166002900480601f0160208091040260200160405190810160405280929190818152602001828054600181600116156101000203166002900480156104275780601f106103fc57610100808354040283529160200191610427565b820191906000526020600020905b81548152906001019060200180831161040a57829003601f168201915b505050505090806006018054600181600116156101000203166002900480601f0160208091040260200160405190810160405280929190818152602001828054600181600116156101000203166002900480156104c55780601f1061049a576101008083540402835291602001916104c5565b820191906000526020600020905b8154815290600101906020018083116104a857829003601f168201915b5050505050908060070154905088565b60606000805480602002602001604051908101604052809291908181526020016000905b8282101561090d57838290600052602060002090600802016101006040519081016040529081600082018054600181600116156101000203166002900480601f0160208091040260200160405190810160405280929190818152602001828054600181600116156101000203166002900480156105b75780601f1061058c576101008083540402835291602001916105b7565b820191906000526020600020905b81548152906001019060200180831161059a57829003601f168201915b50505050508152602001600182018054600181600116156101000203166002900480601f0160208091040260200160405190810160405280929190818152602001828054600181600116156101000203166002900480156106595780601f1061062e57610100808354040283529160200191610659565b820191906000526020600020905b81548152906001019060200180831161063c57829003601f168201915b5050505050815260200160028201548152602001600382018054600181600116156101000203166002900480601f0160208091040260200160405190810160405280929190818152602001828054600181600116156101000203166002900480156107055780601f106106da57610100808354040283529160200191610705565b820191906000526020600020905b8154815290600101906020018083116106e857829003601f168201915b50505050508152602001600482018054600181600116156101000203166002900480601f0160208091040260200160405190810160405280929190818152602001828054600181600116156101000203166002900480156107a75780601f1061077c576101008083540402835291602001916107a7565b820191906000526020600020905b81548152906001019060200180831161078a57829003601f168201915b50505050508152602001600582018054600181600116156101000203166002900480601f0160208091040260200160405190810160405280929190818152602001828054600181600116156101000203166002900480156108495780601f1061081e57610100808354040283529160200191610849565b820191906000526020600020905b81548152906001019060200180831161082c57829003601f168201915b50505050508152602001600682018054600181600116156101000203166002900480601f0160208091040260200160405190810160405280929190818152602001828054600181600116156101000203166002900480156108eb5780601f106108c0576101008083540402835291602001916108eb565b820191906000526020600020905b8154815290600101906020018083116108ce57829003601f168201915b50505050508152602001600782015481525050815260200190600101906104f9565b50505050905090565b61091e610a66565b88816000018190525087816020018190525086816040018181525050858160600181905250848160800181905250838160a00181905250828160c00181905250818160e00181815250506000819080600181540180825580915050906001820390600052602060002090600802016000909192909190915060008201518160000190805190602001906109b2929190610aac565b5060208201518160010190805190602001906109cf929190610aac565b506040820151816002015560608201518160030190805190602001906109f6929190610aac565b506080820151816004019080519060200190610a13929190610aac565b5060a0820151816005019080519060200190610a30929190610aac565b5060c0820151816006019080519060200190610a4d929190610aac565b5060e08201518160070155505050505050505050505050565b6101006040519081016040528060608152602001606081526020016000815260200160608152602001606081526020016060815260200160608152602001600081525090565b828054600181600116156101000203166002900490600052602060002090601f016020900481019282601f10610aed57805160ff1916838001178555610b1b565b82800160010185558215610b1b579182015b82811115610b1a578251825591602001919060010190610aff565b5b509050610b289190610b2c565b5090565b610b4e91905b80821115610b4a576000816000905550600101610b32565b5090565b90565b600082601f8301121515610b6457600080fd5b8135610b77610b7282610fa3565b610f76565b91508082526020830160208301858383011115610b9357600080fd5b610b9e838284611013565b50505092915050565b6000610bb38235611009565b905092915050565b600080600080600080600080610100898b031215610bd857600080fd5b600089013567ffffffffffffffff811115610bf257600080fd5b610bfe8b828c01610b51565b985050602089013567ffffffffffffffff811115610c1b57600080fd5b610c278b828c01610b51565b9750506040610c388b828c01610ba7565b965050606089013567ffffffffffffffff811115610c5557600080fd5b610c618b828c01610b51565b955050608089013567ffffffffffffffff811115610c7e57600080fd5b610c8a8b828c01610b51565b94505060a089013567ffffffffffffffff811115610ca757600080fd5b610cb38b828c01610b51565b93505060c089013567ffffffffffffffff811115610cd057600080fd5b610cdc8b828c01610b51565b92505060e0610ced8b828c01610ba7565b9150509295985092959890939650565b600060208284031215610d0f57600080fd5b6000610d1d84828501610ba7565b91505092915050565b6000610d3182610fdc565b80845260208401935083602082028501610d4a85610fcf565b60005b84811015610d83578383038852610d65838351610dca565b9250610d7082610ff2565b9150602088019750600181019050610d4d565b508196508694505050505092915050565b6000610d9f82610fe7565b808452610db3816020860160208601611022565b610dbc81611055565b602085010191505092915050565b6000610100830160008301518482036000860152610de88282610d94565b91505060208301518482036020860152610e028282610d94565b9150506040830151610e176040860182610e9d565b5060608301518482036060860152610e2f8282610d94565b91505060808301518482036080860152610e498282610d94565b91505060a083015184820360a0860152610e638282610d94565b91505060c083015184820360c0860152610e7d8282610d94565b91505060e0830151610e9260e0860182610e9d565b508091505092915050565b610ea681610fff565b82525050565b60006020820190508181036000830152610ec68184610d26565b905092915050565b6000610100820190508181036000830152610ee9818b610d94565b90508181036020830152610efd818a610d94565b9050610f0c6040830189610e9d565b8181036060830152610f1e8188610d94565b90508181036080830152610f328187610d94565b905081810360a0830152610f468186610d94565b905081810360c0830152610f5a8185610d94565b9050610f6960e0830184610e9d565b9998505050505050505050565b6000604051905081810181811067ffffffffffffffff82111715610f9957600080fd5b8060405250919050565b600067ffffffffffffffff821115610fba57600080fd5b601f19601f8301169050602081019050919050565b6000602082019050919050565b600081519050919050565b600081519050919050565b6000602082019050919050565b6000819050919050565b6000819050919050565b82818337600083830152505050565b60005b83811015611040578082015181840152602081019050611025565b8381111561104f576000848401525b50505050565b6000601f19601f830116905091905056fea265627a7a723058202624c0cf7b5b5d86ee196062487329fbd7deafca754b33d8a417802b21d4797a6c6578706572696d656e74616cf50037",
  "source": "pragma solidity >=0.4.0 <0.7.0;\r\npragma experimental ABIEncoderV2;\r\n\r\ncontract ContratoInmobiliaria {\r\n    struct Contrato {\r\n        string tipo;\r\n        string duracion;\r\n        uint256 valor;\r\n        string moneda;\r\n        string fecha_firma;\r\n        string fecha_vencimiento;\r\n        string cliente;\r\n        uint256 inmueble;\r\n    }\r\n    // mapping(uint256 => contrato) contratos;\r\n    Contrato[] public contratosData;\r\n\r\n    function setContrato(\r\n        string memory tipo,\r\n        string memory duracion,\r\n        uint256 valor,\r\n        string memory moneda,\r\n        string memory fecha_firma,\r\n        string memory fecha_vencimiento,\r\n        string memory cliente,\r\n        uint256 inmueble\r\n    ) public {\r\n        //contratosData.length += 1\r\n        Contrato memory con;\r\n        con.tipo = tipo;\r\n        con.duracion = duracion;\r\n        con.valor = valor;\r\n        con.moneda = moneda;\r\n        con.fecha_firma = fecha_firma;\r\n        con.fecha_vencimiento = fecha_vencimiento;\r\n        con.cliente = cliente;\r\n        con.inmueble = inmueble;\r\n        contratosData.push(con);\r\n    }\r\n\r\n    function getContratos() public view returns (Contrato[] memory) {\r\n        return contratosData;\r\n    }\r\n}\r\n",
  "sourcePath": "C:/Users/vladimir alan PC/Desktop/tallerFinal/contrato/contracts/ContratoInmobiliaria.sol",
  "compiler": {
    "name": "solc",
    "version": "0.5.1+commit.c8a2cb62.Emscripten.clang"
  },
  "schemaVersion": "3.2.5",
  "updatedAt": "2020-10-02T15:47:37.351Z",
  "networkType": "ethereum",
  "devdoc": {
    "methods": {}
  },
  "userdoc": {
    "methods": {}
  }
}